{
  "contractName": "NostalgicFriends",
  "abi": [
    {
      "inputs": [],
      "stateMutability": "nonpayable",
      "type": "constructor"
    },
    {
      "inputs": [],
      "name": "creator",
      "outputs": [
        {
          "internalType": "address",
          "name": "",
          "type": "address"
        }
      ],
      "stateMutability": "view",
      "type": "function",
      "constant": true
    },
    {
      "inputs": [],
      "name": "donation",
      "outputs": [
        {
          "internalType": "address",
          "name": "",
          "type": "address"
        }
      ],
      "stateMutability": "view",
      "type": "function",
      "constant": true
    },
    {
      "inputs": [],
      "name": "maxSales",
      "outputs": [
        {
          "internalType": "uint256",
          "name": "",
          "type": "uint256"
        }
      ],
      "stateMutability": "view",
      "type": "function",
      "constant": true
    },
    {
      "inputs": [],
      "name": "totSales",
      "outputs": [
        {
          "internalType": "uint256",
          "name": "",
          "type": "uint256"
        }
      ],
      "stateMutability": "view",
      "type": "function",
      "constant": true
    },
    {
      "inputs": [],
      "name": "checkSales",
      "outputs": [
        {
          "internalType": "bool",
          "name": "",
          "type": "bool"
        }
      ],
      "stateMutability": "view",
      "type": "function",
      "constant": true
    },
    {
      "inputs": [],
      "name": "handleCheckUser",
      "outputs": [
        {
          "internalType": "bool",
          "name": "",
          "type": "bool"
        }
      ],
      "stateMutability": "view",
      "type": "function",
      "constant": true
    },
    {
      "inputs": [],
      "name": "handlePurchase",
      "outputs": [
        {
          "internalType": "bool",
          "name": "",
          "type": "bool"
        }
      ],
      "stateMutability": "payable",
      "type": "function",
      "payable": true
    }
  ],
  "bytecode": "0x608060405234801561001057600080fd5b506000808190555060646001819055507373cd39c255f9fcb641b81060115f9ee50b35322a600360006101000a81548173ffffffffffffffffffffffffffffffffffffffff021916908373ffffffffffffffffffffffffffffffffffffffff160217905550610828806100846000396000f3fe6080604052600436106100705760003560e01c80638edeb15d1161004e5780638edeb15d146100f6578063bfdf9b6e14610121578063e63346781461014c578063f5da2c871461017757610070565b806302d05d3f146100755780631c0aa00d146100a057806334521a7c146100cb575b600080fd5b34801561008157600080fd5b5061008a610195565b60405161009791906104ed565b60405180910390f35b3480156100ac57600080fd5b506100b56101bb565b6040516100c29190610523565b60405180910390f35b3480156100d757600080fd5b506100e06101c9565b6040516100ed9190610557565b60405180910390f35b34801561010257600080fd5b5061010b6101cf565b60405161011891906104ed565b60405180910390f35b34801561012d57600080fd5b506101366101f5565b6040516101439190610557565b60405180910390f35b34801561015857600080fd5b506101616101fb565b60405161016e9190610523565b60405180910390f35b61017f61024f565b60405161018c9190610523565b60405180910390f35b600260009054906101000a900473ffffffffffffffffffffffffffffffffffffffff1681565b600060015460005410905090565b60005481565b600360009054906101000a900473ffffffffffffffffffffffffffffffffffffffff1681565b60015481565b6000600460003373ffffffffffffffffffffffffffffffffffffffff1673ffffffffffffffffffffffffffffffffffffffff16815260200190815260200160002060009054906101000a900460ff16905090565b60006001151561025d6101bb565b15151461029f576040517f08c379a0000000000000000000000000000000000000000000000000000000008152600401610296906105cf565b60405180910390fd5b66470de4df82000034146102e8576040517f08c379a00000000000000000000000000000000000000000000000000000000081526004016102df9061063b565b60405180910390fd5b600015156102f46101fb565b151514610336576040517f08c379a000000000000000000000000000000000000000000000000000000000815260040161032d906106cd565b60405180910390fd5b600260009054906101000a900473ffffffffffffffffffffffffffffffffffffffff1673ffffffffffffffffffffffffffffffffffffffff166108fc6064604634610381919061071c565b61038b919061078d565b9081150290604051600060405180830381858888f193505050501580156103b6573d6000803e3d6000fd5b50600360009054906101000a900473ffffffffffffffffffffffffffffffffffffffff1673ffffffffffffffffffffffffffffffffffffffff166108fc6064601e34610402919061071c565b61040c919061078d565b9081150290604051600060405180830381858888f19350505050158015610437573d6000803e3d6000fd5b506001600460003373ffffffffffffffffffffffffffffffffffffffff1673ffffffffffffffffffffffffffffffffffffffff16815260200190815260200160002060006101000a81548160ff021916908315150217905550600160005461049f91906107be565b6000819055506001905090565b600073ffffffffffffffffffffffffffffffffffffffff82169050919050565b60006104d7826104ac565b9050919050565b6104e7816104cc565b82525050565b600060208201905061050260008301846104de565b92915050565b60008115159050919050565b61051d81610508565b82525050565b60006020820190506105386000830184610514565b92915050565b6000819050919050565b6105518161053e565b82525050565b600060208201905061056c6000830184610548565b92915050565b600082825260208201905092915050565b7f4f6f7073212c2043616e277420646f2074686174000000000000000000000000600082015250565b60006105b9601483610572565b91506105c482610583565b602082019050919050565b600060208201905081810360008301526105e8816105ac565b9050919050565b7f506c656173652070726f76696465207468652065786163742070726963652e00600082015250565b6000610625601f83610572565b9150610630826105ef565b602082019050919050565b6000602082019050818103600083015261065481610618565b9050919050565b7f536f727279212c20596f752063616e20627579206974206f6e6c79206f6e636560008201527f2100000000000000000000000000000000000000000000000000000000000000602082015250565b60006106b7602183610572565b91506106c28261065b565b604082019050919050565b600060208201905081810360008301526106e6816106aa565b9050919050565b7f4e487b7100000000000000000000000000000000000000000000000000000000600052601160045260246000fd5b60006107278261053e565b91506107328361053e565b92508282026107408161053e565b91508282048414831517610757576107566106ed565b5b5092915050565b7f4e487b7100000000000000000000000000000000000000000000000000000000600052601260045260246000fd5b60006107988261053e565b91506107a38361053e565b9250826107b3576107b261075e565b5b828204905092915050565b60006107c98261053e565b91506107d48361053e565b92508282019050808211156107ec576107eb6106ed565b5b9291505056fea26469706673582212202a27d7d146b238317742444176e5d0a5704c7df7f6591246354a49023c3a1bd164736f6c63430008120033",
  "immutableReferences": {},
  "source": "// SPDX-License-Identifier: MIT\npragma solidity >=0.4.22 <0.9.0;\n\ncontract NostalgicFriends {\n\n  //currency\n  uint public totSales;\n  uint public maxSales;\n\n  //address\n  address public creator;\n  address public donation;\n\n  //typeconv\n  mapping (address => bool) sales;\n\n\n  constructor() {\n\n    //initiation\n    totSales = 0;\n    maxSales = 100;\n    \n    //The Giving Block Company's brain tumor society Inc.\n    donation = 0x73cd39c255F9FcB641b81060115F9Ee50b35322a;\n\n    //For Testing - Ganache\n    //creator = 0x0BDa6E6407985aE34C54dDa2a9B594c1E6C8548D;\n    //donation = 0xFFB18fDb79Ce35799d82D6d3C3CFE29f81BF14d4;\n  }\n\n  //funcchecksales - confirmation - readonly\n  function checkSales() public view returns (bool){\n    return totSales < maxSales;\n  }\n\n  //funchandlecheckuser - Information - readonly\n  function handleCheckUser() public view returns (bool){\n    return sales[msg.sender];\n  }\n\n  //funchandlepurchase - Transaction - payable\n  function handlePurchase() public payable returns (bool) {\n    //validations\n\n    //checking for product\n    require(checkSales() == true, \"Oops!, Can't do that\");\n    //checking the value of the amount\n    require(msg.value == 0.02 ether,\"Please provide the exact price.\");\n    //Checking for existing buyer\n    require(handleCheckUser() == false, \"Sorry!, You can buy it only once!\");\n\n    //spilting\n\n    //creator - 70%\n    payable(creator).transfer(msg.value * 70 / 100);\n    //donation - 30%\n    payable(donation).transfer(msg.value * 30 / 100);\n\n    //setup for buyer to buy once\n    sales[msg.sender] = true;\n\n    //increment for count\n    totSales = totSales + 1;\n\n    return true;\n\n  }\n\n\n\n}\n",
  "sourcePath": "D:\\Nostalgic Friends\\nostalgicfriends\\contracts\\NostalgicFriends.sol",
  "compiler": {
    "name": "solc",
    "version": "0.8.18+commit.87f61d96.Emscripten.clang"
  },
  "schemaVersion": "3.4.12",
  "updatedAt": "2023-02-26T04:27:32.113Z",
  "networkType": "ethereum",
  "devdoc": {
    "kind": "dev",
    "methods": {},
    "version": 1
  },
  "userdoc": {
    "kind": "user",
    "methods": {},
    "version": 1
  }
}